:100000000C942A000C9447000C9447000C94470071
:100010000C9447000C9447000C9447000C94470044
:100020000C9447000C9447000C9447000C94470034
:100030000C9447000C9447000C9447000C94470024
:100040000C9447000C9447000C9447000C94470014
:100050000C94470011241FBECFE5D8E0DEBFCDBF12
:1000600011E0A0E6B0E0E6E0FAE202C005900D92F1
:10007000AC38B107D9F711E0ACE8B1E001C01D928E
:10008000A33BB107E1F70E9474110C9401150C9485
:100090000000EF92FF920F931F937B018C0120E0F1
:1000A00030E040E05FE40E94F50388238CF0C80153
:1000B000B70120E030E040E05FE40E94C1010E940F
:1000C00055049B01AC01205030404040504806C0D0
:1000D000C801B7010E9455049B01AC01B901CA01D6
:1000E0001F910F91FF90EF900895A0E0B0E0EBE733
:1000F000F0E00C94A213DC012B01FA019C919230E8
:1001000008F439C1EB018881823008F433C194309E
:1001100069F4843009F02FC111969C91119789815F
:10012000981709F428C1AEE6B0E025C1843009F47F
:1001300021C18230A9F4923009F01DC19A01AD01AC
:1001400088E0EA010990AE01E90109929E0181501F
:10015000C1F7E201898111969C918923818308C1AD
:10016000923009F407C112962D903C901397EB0141
:100170008A819B811496AD90BD90CD90DC901797AD
:10018000EC80FD800E811F819101281B390BB90184
:1001900037FF04C066277727621B730B6032710537
:1001A0000CF061C0121613066CF537014801062EDB
:1001B00004C096948794779467940A94D2F721E0C8
:1001C00030E040E050E004C0220F331F441F551FB1
:1001D0006A95D2F721503040404050402E213F21B7
:1001E00040235123211531054105510521F021E01E
:1001F00030E040E050E079018A01E628F72808293C
:1002000019293CC0232BD1F1260E371E350146019A
:10021000062E04C096948794779467940A94D2F734
:1002200021E030E040E050E004C0220F331F441FC3
:10023000551F6A95D2F721503040404050402A2146
:100240003B214C215D21211531054105510521F04E
:1002500021E030E040E050E059016A01A628B728CB
:10026000C828D9280BC0821593052CF01C01AA249C
:10027000BB24650103C0EE24FF24870111969C91E5
:10028000D20111968C91981709F445C0992339F041
:10029000A80197012A193B094C095D0906C0A6016E
:1002A00095012E193F09400B510B57FD08C01182D3
:1002B0003382228224833583468357831DC081E0A5
:1002C00081833382228288279927DC01821B930B4A
:1002D000A40BB50B84839583A683B7830DC0220F2F
:1002E000331F441F551F24833583468357838281E0
:1002F000938101979383828324813581468157813D
:10030000DA01C9010197A109B1098F5F9F4FAF4F72
:10031000BF4328F30BC0918333822282EA0CFB1C7B
:100320000C1D1D1DE482F5820683178383E0808304
:10033000248135814681578157FF1AC0C901AA27F8
:1003400097FDA095BA2F81709070A070B0705695EF
:10035000479537952795822B932BA42BB52B848318
:100360009583A683B7838281938101969383828349
:10037000DF0101C0D201CD01CDB7DEB7E2E10C94BF
:10038000BE13A0E2B0E0E7ECF1E00C94AE13698399
:100390007A838B839C832D833E834F835887E9E048
:1003A000EE2EF12CEC0EFD1ECE010196B7010E943F
:1003B00046068E010F5E1F4FCE010596B8010E94C2
:1003C00046068A8991E089278A8BC701B801AE0168
:1003D000475E5F4F0E9475000E947105A096E6E09F
:1003E0000C94CA13A0E2B0E0E8EFF1E00C94AE1375
:1003F00069837A838B839C832D833E834F835887C5
:10040000F9E0EF2EF12CEC0EFD1ECE010196B701A6
:100410000E9446068E010F5E1F4FCE010596B80161
:100420000E944606C701B801AE01475E5F4F0E94B9
:1004300075000E947105A096E6E00C94CA13A0E234
:10044000B0E0E5E2F2E00C94A21369837A838B8337
:100450009C832D833E834F835887CE010196BE0136
:10046000675F7F4F0E944606CE010596BE016F5E14
:100470007F4F0E9446069985923088F089898230A4
:10048000C8F0943019F4823051F404C0843029F457
:10049000923081F48EE690E0C6C0923049F420E0BC
:1004A0009A858A89981321E02A87CE010996BBC0D4
:1004B000823049F420E09A858A89981321E02A8BBA
:1004C000CE014196B0C02D843E844F8458886D88FB
:1004D0007E888F88988CEE24FF248701AA24BB2471
:1004E000650140E050E060E070E0E0E0F0E0C10174
:1004F00081709070892BE9F0E60CF71C081D191D1E
:100500009A01AB012A0D3B1D4C1D5D1D80E090E062
:10051000A0E0B0E0E614F7040805190520F481E036
:1005200090E0A0E0B0E0BA01A901480F591F6A1F8E
:100530007B1FAA0CBB1CCC1CDD1C97FE08C081E0F5
:1005400090E0A0E0B0E0A82AB92ACA2ADB2A3196B6
:10055000E032F10549F0660C771C881C991C569412
:10056000479437942794C3CFFA85EA892B893C892D
:100570008B859C85280F391F2E5F3F4F17C0CA01FE
:1005800081709070892B61F016950795F794E79428
:1005900080E090E0A0E0B0E8E82AF92A0A2B1B2BC3
:1005A00076956795579547952F5F3F4F77FDE7CF36
:1005B0000CC0440F551F661F771F17FD4160EE0CDE
:1005C000FF1C001F111F21503040403090E05907A0
:1005D00090E0690790E4790760F32B8F3C8FDB0193
:1005E000CA018F779070A070B07080349105A1051A
:1005F000B10561F447FD0AC0E114F10401051105DC
:1006000029F0405C5F4F6F4F7F4F40781A8EFE1786
:1006100011F081E08A8F4D8F5E8F6F8F78A383E01A
:10062000898FCE0149960E947105A096E2E10C9453
:10063000BE13A8E1B0E0EFE1F3E00C94AA136983E4
:100640007A838B839C832D833E834F835887B9E0C5
:10065000EB2EF12CEC0EFD1ECE010196B7010E948F
:1006600046068E010F5E1F4FCE010596B8010E940F
:1006700046062985223008F47EC03989323010F4CC
:10068000B8017CC08A859A8989278A87243011F02D
:10069000223031F4231709F06EC06EE670E06EC0B0
:1006A000343039F41D861E861F86188A1C861B86E8
:1006B00004C0323021F484E08987B7015FC02B8504
:1006C0003C858B899C89281B390B3C872B87ED84C3
:1006D000FE840F851889AD88BE88CF88D88CEA142F
:1006E000FB040C051D0540F4EE0CFF1C001F111F40
:1006F000215030403C872B8720E030E040E050E044
:1007000080E090E0A0E0B0E460E070E0EA14FB0478
:100710000C051D0540F0282B392B4A2B5B2BEA18C2
:10072000FB080C091D09B695A79597958795EE0CC2
:10073000FF1C001F111F6F5F7F4F6F31710531F775
:10074000DA01C9018F779070A070B0708034910584
:10075000A105B10561F427FD0AC0E114F10401050A
:10076000110529F0205C3F4F4F4F5F4F20782D87B8
:100770003E874F87588BBE01675F7F4FCB010E943A
:1007800071056896EAE00C94C613A8E1B0E0EBECC2
:10079000F3E00C94AE1369837A838B839C832D835F
:1007A0003E834F83588789E0E82EF12CEC0EFD1E26
:1007B000CE010196B7010E9446068E010F5E1F4FC3
:1007C000CE010596B8010E9446068985823040F028
:1007D0008989823028F0C701B8010E94BE0601C095
:1007E0008FEF6896E6E00C94CA13A8E1B0E0EBEF57
:1007F000F3E00C94AE1369837A838B839C832D83FF
:100800003E834F83588789E0E82EF12CEC0EFD1EC5
:10081000CE010196B7010E9446068E010F5E1F4F62
:10082000CE010596B8010E9446068985823040F0C7
:100830008989823028F0C701B8010E94BE0601C034
:100840008FEF6896E6E00C94CA13A8E1B0E0EBE203
:10085000F4E00C94AE1369837A838B839C832D839D
:100860003E834F83588789E0E82EF12CEC0EFD1E65
:10087000CE010196B7010E9446068E010F5E1F4F02
:10088000CE010596B8010E9446068985823040F067
:100890008989823028F0C701B8010E94BE0601C0D4
:1008A00081E06896E6E00C94CA13ACE0B0E0EBE5BA
:1008B000F4E00C94B21369837A838B839C83CE011A
:1008C0000196BE016B5F7F4F0E9446068D8182308C
:1008D00061F1823050F1843021F48E81882351F10E
:1008E0002EC02F81388537FD20C06E812F31310514
:1008F0001CF06623F9F023C08EE190E0821B930B7D
:1009000029853A854B855C8504C056954795379572
:1009100027958A95D2F76623B1F05095409530958A
:1009200021953F4F4F4F5F4F0EC020E030E040E039
:1009300050E009C02FEF3FEF4FEF5FE704C020E02A
:1009400030E040E050E8B901CA012C96E2E00C9496
:10095000CE13A8E0B0E0EFEAF4E00C94AA137B0118
:100960008C01611571058105910519F482E0898377
:1009700060C083E089838EE1C82ED12CDC82CB82DB
:10098000ED82FE820F831887C801B7010E942205FD
:10099000FC013197F7FF3BC0222733272E1B3F0B6B
:1009A00057016801022E04C0D694C794B794A79447
:1009B0000A94D2F740E050E060E070E081E090E01F
:1009C000A0E0B0E004C0880F991FAA1FBB1F2A95A2
:1009D000D2F70197A109B1098E219F21A023B1234C
:1009E0000097A105B10521F041E050E060E070E022
:1009F0004A295B296C297D294D835E836F83788723
:100A00008EE190E08E1B9F0B9C838B8312C03097EE
:100A100081F00E2E04C0EE0CFF1C001F111F0A9463
:100A2000D2F7ED82FE820F831887CE1ADF0ADC82AE
:100A3000CB821A82CE0101960E9471052896EAE0C7
:100A40000C94C613EF92FF920F931F937B018C01BE
:100A500080E0E81680E0F80681E0080780E01807EB
:100A600088F48FEFE816F1040105110531F028F044
:100A700088E090E0A0E0B0E017C080E090E0A0E067
:100A8000B0E012C080E0E81680E0F80680E00807D9
:100A900081E0180728F088E190E0A0E0B0E004C011
:100AA00080E190E0A0E0B0E020E230E040E050E003
:100AB000281B390B4A0B5B0B04C016950795F7945E
:100AC000E7948A95D2F7F701EA58FF4F8081281BF7
:100AD000310941095109C9011F910F91FF90EF9010
:100AE0000895DF92EF92FF920F931F93FC01E48031
:100AF000F58006811781D1808081823048F480E0C2
:100B000090E0A0E1B0E0E82AF92A0A2B1B2BA5C04F
:100B1000843009F49FC0823021F4EE24FF24870141
:100B200005C0E114F1040105110519F4E0E0F0E05D
:100B300096C0628173819FEF623879070CF05BC0C9
:100B400022E83FEF261B370B2A3131052CF020E03D
:100B500030E040E050E02AC0B801A701022E04C0F6
:100B600076956795579547950A94D2F781E090E07E
:100B7000A0E0B0E004C0880F991FAA1FBB1F2A95F0
:100B8000D2F70197A109B1098E219F21A023B1239A
:100B90000097A105B10521F081E090E0A0E0B0E070
:100BA0009A01AB01282B392B4A2B5B2BDA01C901A7
:100BB0008F779070A070B07080349105A105B10559
:100BC00039F427FF09C0205C3F4F4F4F5F4F04C0EF
:100BD000215C3F4F4F4F5F4FE0E0F0E02030A0E05E
:100BE0003A07A0E04A07A0E45A0710F0E1E0F0E07D
:100BF00079018A0127C06038710564F5FB01E1586D
:100C0000FF4FD801C7018F779070A070B07080340B
:100C10009105A105B10539F4E7FE0DC080E490E02F
:100C2000A0E0B0E004C08FE390E0A0E0B0E0E80E08
:100C3000F91E0A1F1B1F17FF05C016950795F7948D
:100C4000E794319687E016950795F794E7948A958F
:100C5000D1F705C0EE24FF248701EFEFF0E06E2FFF
:100C6000679566276795902F9F77D794DD24D79453
:100C70008E2F8695492F462B582F5D29B701CA0123
:100C80001F910F91FF90EF90DF900895FC01DB0121
:100C9000408151812281622F6F7770E0221F2227CD
:100CA000221F9381892F880F822B282F30E0991FD4
:100CB0009927991F11969C93119721153105A9F534
:100CC000411551056105710511F482E037C082E8D4
:100CD0009FEF13969C938E9312979A01AB0167E056
:100CE000220F331F441F551F6A95D1F783E08C9361
:100CF0000DC0220F331F441F551F12968D919C91DA
:100D00001397019713969C938E931297203080E04F
:100D1000380780E0480780E4580758F314962D936D
:100D20003D934D935C93179708952F3F310579F4C8
:100D3000411551056105710519F484E08C930895FE
:100D400064FF03C081E08C9312C01C9210C02F5727
:100D5000304013963C932E93129783E08C9387E058
:100D6000440F551F661F771F8A95D1F7706414963C
:100D70004D935D936D937C93179708951F93DC01BA
:100D8000FB019C91923008F447C08081823008F4C6
:100D900043C0943051F411961C91843099F58181AF
:100DA000682F70E0611B71093FC0843021F09230E0
:100DB00031F48230B9F18181882389F12DC01196F7
:100DC0001C9111978230F1F081811817D9F4129695
:100DD0002D913C911397828193818217930794F010
:100DE00028173907BCF014968D919D910D90BC91F8
:100DF000A02D2481358146815781281739074A075C
:100E00005B0718F4112341F00AC082179307A40767
:100E1000B50740F4112319F061E070E005C06FEFF1
:100E20007FEF02C060E070E0CB011F910895DF9377
:100E3000CF930F92CDB7DEB789838981982F9170B8
:100E400081E061E0492F0E94C10A89818695982F2F
:100E5000917081E062E0492F0E94C10A89818695E4
:100E60008695982F917081E063E0492F0E94C10A16
:100E70008981869586958695982F917081E064E0AA
:100E8000492F0E94C10A0F90CF91DF910895DF93FF
:100E9000CF93CDB7DEB72E970FB6F894DEBF0FBE57
:100EA000CDBF80E063E041E00E94C10A80E090E0B5
:100EB000A0E0B0E48B879C87AD87BE876B857C857F
:100EC0008D859E8520E030E04AE755E40E941F02B0
:100ED000DC01CB018F839887A987BA876F817885DA
:100EE00089859A8520E030E040E85FE30E94250490
:100EF00088232CF481E090E09E838D833FC06F8136
:100F0000788589859A8520E03FEF4FE757E40E9476
:100F1000C50318164CF56B857C858D859E8520E074
:100F200030E040E251E40E941F02DC01CB01BC0131
:100F3000CD010E944900DC01CB019E838D830FC04F
:100F400080E991E09C838B838B819C810197F1F7F1
:100F50009C838B838D819E8101979E838D838D8160
:100F60009E81009769F714C06F81788589859A857D
:100F70000E944900DC01CB019E838D838D819E817F
:100F80009A83898389819A810197F1F79A8389836A
:100F900080E063E040E00E94C10A2E960FB6F8940C
:100FA000DEBF0FBECDBFCF91DF910895DF93CF930A
:100FB0000F92CDB7DEB7898380E061E040E00E9408
:100FC000C10A80E062E040E00E94C10A8981829506
:100FD0008F700E9417070E94470789810E94170798
:100FE0000E9447070F90CF91DF910895DF93CF9331
:100FF0000F92CDB7DEB7898380E061E041E00E94C7
:10100000C10A80E062E040E00E94C10A89818295C5
:101010008F700E9417070E94470789810E94170757
:101020000E9447070F90CF91DF910895DF93CF93F0
:10103000CDB7DEB72E970FB6F894DEBF0FBECDBF8B
:1010400080E090E0A0E2B2E48B879C87AD87BE870A
:101050006B857C858D859E8520E030E04AE755E4F0
:101060000E941F02DC01CB018F839887A987BA8772
:101070006F81788589859A8520E030E040E85FE3DC
:101080000E94250488232CF481E090E09E838D83C8
:101090003FC06F81788589859A8520E03FEF4FE7D3
:1010A00057E40E94C50318164CF56B857C858D8529
:1010B0009E8520E030E040E251E40E941F02DC0106
:1010C000CB01BC01CD010E944900DC01CB019E8314
:1010D0008D830FC080E991E09C838B838B819C8101
:1010E0000197F1F79C838B838D819E8101979E836D
:1010F0008D838D819E81009769F714C06F817885FB
:1011000089859A850E944900DC01CB019E838D83ED
:101110008D819E819A83898389819A810197F1F7D4
:101120009A83898382E00E9417070E94470782E022
:101130000E9417070E94470788E00E9417070E9435
:1011400047078CE00E94D60781E00E94D6072E96C2
:101150000FB6F894DEBF0FBECDBFCF91DF910895DB
:10116000DF93CF9300D000D0CDB7DEB79C838B83C5
:1011700081E08A838B819C810097E9F019820EC0FF
:101180008981282F30E08B819C81FC01E20FF31FC5
:1011900080810E94F60789818F5F89838981282F4A
:1011A00030E08B819C81FC01E20FF31F808188235A
:1011B00039F71A8202C082E08A838A810F900F90E9
:1011C0000F900F90CF91DF910895DF93CF93CDB71C
:1011D000DEB761970FB6F894DEBF0FBECDBF9F8715
:1011E0008E871A828E859F85009721F480E30E9466
:1011F000F60749C08E859F85992364F58E859F8566
:10120000909581959F4F9F878E878DE20E94F6076C
:1012100021C08E859F852AE030E0B9010E947B13B2
:101220008B838E859F852AE030E0B9010E948F1361
:10123000CB019F878E878A81282F30E08B81482FB2
:10124000405DCE010496FC01E20FF31F40838A81CA
:101250008F5F8A838E859F850097D9F68A8181501A
:1012600089830EC08981282F30E0CE010496FC01CD
:10127000E20FF31F80810E94F607898181508983E4
:10128000898188237CF761960FB6F894DEBF0FBE84
:10129000CDBFCF91DF910895DF93CF9300D00F9210
:1012A000CDB7DEB78A836B838B81882319F48A815B
:1012B000898306C08B81813019F48A81805C89839F
:1012C00089818068898389810E94D6070F900F9059
:1012D0000F90CF91DF910895DF93CF93CDB7DEB715
:1012E00028970FB6F894DEBF0FBECDBF8C837E83E8
:1012F0006D834F8328871B828D819E81009719F112
:101300008C81882F90E0880F991F880F991F880F74
:10131000991F8A838A8180648A838A810E94D60782
:10132000198206C089810E94F60789818F5F8983AF
:1013300089818830B8F38F8168850E944C098C813F
:101340000E94F60702C082E08B838B8128960FB63D
:10135000F894DEBF0FBECDBFCF91DF910895DF932C
:10136000CF93CDB7DEB728970FB6F894DEBF0FBE88
:10137000CDBF8A836B834C8319828B81883008F0C0
:10138000F4C08C81882309F077C08A81282F30E04F
:1013900038872F838F8198858130910559F12F816E
:1013A0003885223031052CF48F819885009769F0BB
:1013B00060C02F8138852230310589F18F81988571
:1013C0008330910509F440C054C0AAE3B0E0EAE3D9
:1013D000F0E08081482F8B81282F30E081E090E081
:1013E000022E02C0880F991F0A94E2F78095842389
:1013F0008C93BDC0A7E3B0E0E7E3F0E08081482F25
:101400008B81282F30E081E090E0022E02C0880F0F
:10141000991F0A94E2F7809584238C93A8C0A4E3D3
:10142000B0E0E4E3F0E08081482F8B81282F30E0AA
:1014300081E090E0022E02C0880F991F0A94E2F723
:10144000809584238C9393C0A1E3B0E0E1E3F0E0C6
:101450008081482F8B81282F30E081E090E0022EA0
:1014600002C0880F991F0A94E2F7809584238C9319
:101470007EC081E089837BC08C81813009F072C09D
:101480008A81282F30E03E832D838D819E8181309B
:10149000910549F12D813E81223031052CF48D8159
:1014A0009E81009761F05BC02D813E812230310525
:1014B00071F18D819E8183309105E9F150C0AAE3DD
:1014C000B0E0EAE3F0E08081482F8B81282F30E004
:1014D00081E090E0022E02C0880F991F0A94E2F783
:1014E000842B8C9344C0A7E3B0E0E7E3F0E0808175
:1014F000482F8B81282F30E081E090E0022E02C03F
:10150000880F991F0A94E2F7842B8C9330C0A4E3D0
:10151000B0E0E4E3F0E08081482F8B81282F30E0B9
:1015200081E090E0022E02C0880F991F0A94E2F732
:10153000842B8C931CC0A1E3B0E0E1E3F0E0808158
:10154000482F8B81282F30E081E090E0022E02C0EE
:10155000880F991F0A94E2F7842B8C9308C081E0CE
:10156000898305C081E0898302C081E08983898104
:1015700028960FB6F894DEBF0FBECDBFCF91DF9196
:101580000895DF93CF93CDB7DEB728970FB6F894C1
:10159000DEBF0FBECDBF8A836B834C8319828B81E4
:1015A000883008F0F4C08C81882309F077C08A81E4
:1015B000282F30E038872F838F81988581309105DF
:1015C00059F12F813885223031052CF48F8198858F
:1015D000009769F060C02F8138852230310589F18C
:1015E0008F8198858330910509F440C054C0ABE3E6
:1015F000B0E0EBE3F0E08081482F8B81282F30E0D2
:1016000081E090E0022E02C0880F991F0A94E2F751
:10161000809584238C93BDC0A8E3B0E0E8E3F0E0BC
:101620008081482F8B81282F30E081E090E0022ECE
:1016300002C0880F991F0A94E2F7809584238C9347
:10164000A8C0A5E3B0E0E5E3F0E08081482F8B81FE
:10165000282F30E081E090E0022E02C0880F991F11
:101660000A94E2F7809584238C9393C0A2E3B0E0C0
:10167000E2E3F0E08081482F8B81282F30E081E089
:1016800090E0022E02C0880F991F0A94E2F780951D
:1016900084238C937EC081E089837BC08C818130E0
:1016A00009F072C08A81282F30E03E832D838D811E
:1016B0009E818130910549F12D813E812230310595
:1016C0002CF48D819E81009761F05BC02D813E815D
:1016D0002230310571F18D819E8183309105E9F1D0
:1016E00050C0ABE3B0E0EBE3F0E08081482F8B81AA
:1016F000282F30E081E090E0022E02C0880F991F71
:101700000A94E2F7842B8C9344C0A8E3B0E0E8E3AA
:10171000F0E08081482F8B81282F30E081E090E03D
:10172000022E02C0880F991F0A94E2F7842B8C9333
:1017300030C0A5E3B0E0E5E3F0E08081482F8B8185
:10174000282F30E081E090E0022E02C0880F991F20
:101750000A94E2F7842B8C931CC0A2E3B0E0E2E38E
:10176000F0E08081482F8B81282F30E081E090E0ED
:10177000022E02C0880F991F0A94E2F7842B8C93E3
:1017800008C081E0898305C081E0898302C081E0CF
:101790008983898128960FB6F894DEBF0FBECDBF2E
:1017A000CF91DF910895DF93CF93CDB7DEB7279721
:1017B0000FB6F894DEBF0FBECDBF8A836B835D8307
:1017C0004C8319828C819D81009709F47BC08B81A9
:1017D000883008F074C08A81282F30E03F832E8340
:1017E0004E815F814130510559F18E819F81823058
:1017F000910534F42E813F812115310569F05CC0DB
:101800004E815F814230510579F18E819F81833015
:10181000910509F43DC050C0E9E3F0E08081282F34
:1018200030E08B81882F90E0A90102C05595479543
:101830008A95E2F7CA018170EC81FD81808344C002
:10184000E6E3F0E08081282F30E08B81882F90E064
:10185000A90102C0559547958A95E2F7CA018170A2
:10186000EC81FD81808330C0E3E3F0E08081282FAC
:1018700030E08B81882F90E0A90102C055954795F3
:101880008A95E2F7CA018170EC81FD8180831CC0DA
:10189000E0E3F0E08081282F30E08B81882F90E01A
:1018A000A90102C0559547958A95E2F7CA01817052
:1018B000EC81FD81808308C081E0898305C081E0DF
:1018C000898302C082E08983898127960FB6F894C4
:1018D000DEBF0FBECDBFCF91DF910895DF93CF93D1
:1018E00000D000D00F92CDB7DEB78A836B83198208
:1018F0008A81282F30E03D832C838C819D8181302B
:101900009105D1F02C813D81223031052CF48C8160
:101910009D81009761F01FC02C813D8122303105EF
:1019200081F08C819D818330910581F014C0EAE3C0
:10193000F0E08B81808311C0E7E3F0E08B8180834E
:101940000CC0E4E3F0E08B81808307C0E1E3F0E0CA
:101950008B81808302C081E0898389810F900F9001
:101960000F900F900F90CF91DF910895DF93CF9359
:1019700000D000D00F92CDB7DEB78A836B83198277
:101980008A81282F30E03D832C838C819D8181309A
:101990009105D1F02C813D81223031052CF48C81D0
:1019A0009D81009761F01FC02C813D81223031055F
:1019B00081F08C819D818330910581F014C0EBE32F
:1019C000F0E08B81808311C0E8E3F0E08B818083BD
:1019D0000CC0E5E3F0E08B81808307C0E2E3F0E038
:1019E0008B81808302C081E0898389810F900F9071
:1019F0000F900F900F90CF91DF910895DF93CF93C9
:101A000000D000D00F92CDB7DEB78A836B831982E6
:101A10008B81883008F072C08A81282F30E03D83A6
:101A20002C838C819D818130910549F12C813D81F0
:101A3000223031052CF48C819D81009761F05BC0D0
:101A40002C813D812230310571F18C819D81833063
:101A50009105E9F150C0ABE3B0E0EBE3F0E0808149
:101A6000482F8B81282F30E081E090E0022E02C0C9
:101A7000880F991F0A94E2F784278C9341C0A8E34A
:101A8000B0E0E8E3F0E08081482F8B81282F30E040
:101A900081E090E0022E02C0880F991F0A94E2F7BD
:101AA00084278C932DC0A5E3B0E0E5E3F0E08081CE
:101AB000482F8B81282F30E081E090E0022E02C079
:101AC000880F991F0A94E2F784278C9319C0A2E328
:101AD000B0E0E2E3F0E08081482F8B81282F30E0F6
:101AE00081E090E0022E02C0880F991F0A94E2F76D
:101AF00084278C9305C081E0898302C081E08983BB
:101B000089810F900F900F900F900F90CF91DF91E0
:101B10000895DF93CF93CDB7DEB7A2970FB6F894B1
:101B2000DEBF0FBECDBF1B821A828FEF8983CE012D
:101B300004969F8F8E8FECE7F1E0F9A3E8A3F0E124
:101B4000FAA3E8A1F9A1008088A199A1019699A31F
:101B500088A3EE8DFF8D00828E8D9F8D01969F8FC5
:101B60008E8F9AA191509AA3EAA1EE2351F71C8A75
:101B700081E08D8B82E08E8B83E08F8B84E0888F79
:101B800085E0898F86E08A8F87E08B8F1B8268C013
:101B90008B81282F30E0CE014496FC01E20FF31F29
:101BA000908182E0692F40E00E94C10A1A8243C0FE
:101BB0008A81282F30E0CE014896FC01E20FF31F06
:101BC00090819E01245E3F4F82E0692FA9010E940F
:101BD000D30B8C8D882361F58A81282F30E08B818F
:101BE000482F50E0220F331F220F331FCE010196E2
:101BF000820F931F840F951FFC0133968081898388
:101C000011C08A81282F30E0CE014896FC01E20FF6
:101C1000F31F90819E01245E3F4F82E0692FA9014E
:101C20000E94D30B8C8D882361F3F981FD8F1EC038
:101C30008A818F5F8A838A81843008F4B9CF8B814F
:101C4000282F30E0CE014496FC01E20FF31F908173
:101C500082E0692F41E00E94C10A8B818F5F8B83F4
:101C60008B81843008F494CF89818D8F8D8DA296DD
:101C70000FB6F894DEBF0FBECDBFCF91DF910895B0
:101C8000DF93CF93CDB7DEB7EAE3F0E08AE080835D
:101C9000E7E3F0E08EE18083E4E3F0E08FE080832F
:101CA000E1E3F0E01082EBE3F0E01082E8E3F0E043
:101CB0001082E5E3F0E08FEF8083E2E3F0E0108252
:101CC000CF91DF910895DF93CF9300D000D0CDB7AF
:101CD000DEB789838981282F30E03C832B838B8179
:101CE0009C818B329105B1F02B813C812C323105E6
:101CF00034F48B819C818A32910579F011C02B815B
:101D00003C812D32310531F08B819C818F329105E0
:101D100021F006C091E09A8304C022E02A8301C02A
:101D20001A828A810F900F900F900F90CF91DF91C0
:101D300008950F931F93DF93CF93CDB7DEB7289706
:101D40000FB6F894DEBF0FBECDBF9E838D831C827D
:101D50001B821A8219828EEA91E060E10E943B1296
:101D600090938D0180938C018D819E81009709F461
:101D7000FDC0C2C08C81282F30E08D819E81FC0186
:101D8000E20FF31F8081803308F447C08C81282F35
:101D900030E08D819E81FC01E20FF31F80818A3348
:101DA000E0F516C08A81482F50E08C81282F30E062
:101DB0008D819E81FC01E20FF31F8081FA01E257C1
:101DC000FE4F80838A818F5F8A838C818F5F8C83B3
:101DD0008C81282F30E08D819E81FC01E20FF31F62
:101DE0008081803358F08C81282F30E08D819E8156
:101DF000FC01E20FF31F80818A33A0F28A81882FD1
:101E000090E0FC01E257FE4F80E280838A818F5F81
:101E10008A838C8181508C836CC08C81282F30E028
:101E20008D819E81FC01E20FF31F80810E94630E71
:101E300089838C818B838B81282F30E08D819E81DB
:101E4000FC01E20FF31F40818B81882F90E09C0101
:101E5000215030408D819E81FC01E20FF31F808173
:101E60004817E9F48B818823D1F08C818F5F8C83B4
:101E70008B818F5F8B8340C08A81082F10E0809117
:101E80008C0190918D012EEA31E0B9010E94CA12B5
:101E9000F801E257FE4F80838A818F5F8A838091A9
:101EA0008C0190918D010E940A12882379F480910F
:101EB0008C0190918D012EEA31E0B9010E941B1333
:101EC0000E94630E982F89819817B0F640918C017B
:101ED00050918D018C81282F30E08D819E81FC01F5
:101EE000E20FF31F8081282F30E0CA01B9010E9460
:101EF00087128C818F5F8C838C81282F30E08D81BD
:101F00009E81FC01E20FF31F8081882309F032CF0C
:101F100013C08A81082F10E080918C0190918D016F
:101F20002EEA31E0B9010E94CA12F801E257FE4FD1
:101F300080838A818F5F8A8380918C0190918D014B
:101F40000E940A12882329F38A81882F90E0FC01DD
:101F5000E257FE4F108280918C0190918D010E947A
:101F600059138EE891E098878F8302C018861F82EC
:101F70008F81988528960FB6F894DEBF0FBECDBF2F
:101F8000CF91DF911F910F910895EF92FF920F93E0
:101F90001F93DF93CF93CDB7DEB763970FB6F89457
:101FA000DEBF0FBECDBF9D878C877F876E871B8668
:101FB0001A86198618861F821E821D821C821B8229
:101FC000EE85FF8510828EEA91E060E10E943B126F
:101FD00090938D0180938C018C859D85009709F4E9
:101FE00070C142C18B85282F30E08C859D85FC0116
:101FF000E20FF31F8081803308F452C08B85282FB5
:1020000030E08C859D85FC01E20FF31F80818A33CF
:1020100008F046C01A82198220C089819A819C01E9
:10202000220F331FC901880F991F880F991FA9011B
:10203000480F591F8B85282F30E08C859D85FC012A
:10204000E20FF31F8081882F90E0840F951FC097C7
:102050009A8389838B858F5F8B878B85282F30E0D0
:102060008C859D85FC01E20FF31F8081803358F041
:102070008B85282F30E08C859D85FC01E20FF31FB6
:1020800080818A3350F280918C0190918D01298159
:102090003A81B9010E9487128B8581508B87E1C0FC
:1020A0008B85282F30E08C859D85FC01E20FF31F86
:1020B0008081803221F48B858F5F8B87D5C08091A2
:1020C0008C0190918D010E940A12882329F02FEF34
:1020D0003FEF3B8B2A8BF9C080918C0190918D0151
:1020E0002EEA31E0B9010E94CA129D838C8380914F
:1020F0008C0190918D010E940A12882329F04FEFE4
:102100005FEF5B8B4A8BE1C080918C0190918D01D8
:102110002EEA31E0B9010E94CA129F838E838B851B
:10212000282F30E08C859D85FC01E20FF31F808114
:10213000282F30E0398B288B488959894B3251053B
:10214000B1F0888999898C32910534F428893989CC
:102150002A323105F1F077C0488959894D3251054D
:1021600079F0888999898F32910511F16CC08E813F
:102170009F812C813D81820F931F9987888768C03A
:102180008E819F812C813D81821B930B998788874B
:102190005FC08E819F812C813D81AC01429FC00137
:1021A000439F900D529F900D11249987888750C0AE
:1021B0008C819D81009729F48FEF9FEF9B8B8A8BF9
:1021C00084C08E819F812C813D81B9010E947B1347
:1021D0008B838B81882F90E0A0E0B0E0BC01CD0123
:1021E0000E94A9047B018C018C819D81CC01A0E01F
:1021F000B0E0BC01CD010E94A9049B01AC01C80163
:10220000B7010E941903DC01CB01BC01CD0120E024
:1022100030E040E251E40E941F02DC01CB01BC012E
:10222000CD010E944900DC01CB01EE85FF85808352
:102230008E819F812C813D81B9010E947B13CB014E
:102240009987888705C02FEF3FEF3B8B2A8B3DC0D6
:1022500080918C0190918D0128853985B9010E946A
:1022600087128B858F5F8B878B85282F30E08C853D
:102270009D85FC01E20FF31F80818D3309F0B2CE02
:1022800080918C0190918D010E940A12882319F08F
:102290001B8A1A8A1AC080918C0190918D012EEAB6
:1022A00031E0B9010E94CA129987888780918C0118
:1022B00090918D010E945913488559855B8B4A8BFB
:1022C00004C08FEF9FEF9B8B8A8B8A899B896396D3
:1022D0000FB6F894DEBF0FBECDBFCF91DF911F9137
:1022E0000F91FF90EF900895DF93CF93CDB7DEB7B6
:1022F00069970FB6F894DEBF0FBECDBF1F82198E4F
:102300000E94400E0E9416080E94890D88878885C9
:102310008F3F09F441C08885833671F58F8188230A
:10232000E1F41A820EC0198206C080E20E94F6070C
:1023300089818F5F898389818031B8F38A818F5F3A
:102340008A838A81803178F31F821C821B821986DE
:1023500080E060E00E944C091FC08F8181508F8314
:102360008F8160E00E944C0980E20E94F6078F8115
:1023700060E00E944C0910C088850E94F6078F819A
:10238000282F30E0CE010996FC01E20FF31F88856B
:1023900080838F818F5F8F8388858D3309F0B4CFE1
:1023A0008F81282F30E0CE010996FC01E20FF31F48
:1023B0001082CE0109960E94990E9E838D8380E043
:1023C00061E00E944C0980E690E00E94B0088D8197
:1023D0009E819E01275E3F4FB9010E94C50F9C83DD
:1023E0008B838B819C812FEF8F3F920769F08B81CC
:1023F0009C810E94E5088EE20E94F607898D882F55
:1024000090E00E94E50804C088E690E00E94B008D1
:102410001F827ACFDF93CF9300D00F92CDB7DEB774
:102420009A838983E981FA8182811B82882311F44E
:1024300081E08B838B810F900F900F90CF91DF9174
:102440000895DF93CF9300D00F92CDB7DEB79A8374
:102450008983E981FA819281E981FA8181811B82F4
:10246000981711F481E08B838B810F900F900F9060
:10247000CF91DF910895DF93CF9300D000D00F92DA
:10248000CDB7DEB79C838B836D83EB81FC8110829B
:1024900085E090E00E94F5139A83898389819A816F
:1024A000009729F4EB81FC8184E0808326C08D8134
:1024B000992787FD909561E070E00E94D913E9812A
:1024C000FA8194838383E981FA81838194810097DF
:1024D00029F4EB81FC8184E080830FC0E981FA81DB
:1024E0008FEF80838D81E981FA818183E981FA818F
:1024F0001282EB81FC8181E0808389819A810F9037
:102500000F900F900F900F90CF91DF910895DF9370
:10251000CF9300D000D00F92CDB7DEB79B838A83D4
:102520007D836C8319828A819B81009711F41982C3
:1025300028C08A819B810E942112882319F083E0A0
:1025400089831FC0EA81FB8123813481EA81FB8179
:1025500080818F5FEA81FB818083EA81FB818081BA
:10256000992787FD9095F901E80FF91F8C818083E9
:10257000EA81FB8182818F5FEA81FB81828381E036
:10258000898389810F900F900F900F900F90CF91BA
:10259000DF910895DF93CF9300D000D000D0CDB766
:1025A000DEB79C838B837E836D83ED81FE811082F9
:1025B0001A8219828B819C81009721F4ED81FE8122
:1025C00010822EC08B819C810E940A12882329F0E0
:1025D000ED81FE8182E0808323C0EB81FC81238139
:1025E0003481EB81FC814081842F992787FD909570
:1025F000F901E80FF91F8081882F90E09A83898381
:10260000842F8150EB81FC818083EB81FC8182816E
:102610008150EB81FC818283ED81FE8181E08083AA
:1026200089819A8126960FB6F894DEBF0FBECDBF82
:10263000CF91DF910895DF93CF9300D000D00F9218
:10264000CDB7DEB79B838A837D836C83EC81FD816C
:10265000108219828A819B81009721F4EC81FD818F
:1026600010821EC08A819B810E940A12882329F051
:10267000EC81FD8182E0808313C0EA81FB812381AC
:102680003481EA81FB818081992787FD9095F9014A
:10269000E80FF91F80818983EC81FD8181E08083CF
:1026A00089810F900F900F900F900F90CF91DF9135
:1026B0000895DF93CF9300D00F92CDB7DEB79B8301
:1026C0008A8319828A819B81009711F419820CC038
:1026D000EA81FB81838194810E94A2148A819B817B
:1026E0000E94A21481E0898389810F900F900F903E
:1026F000CF91DF910895AA1BBB1B51E107C0AA1F10
:10270000BB1FA617B70710F0A61BB70B881F991F92
:102710005A95A9F780959095BC01CD01089597FB36
:10272000092E07260AD077FD04D0E5DF06D0002069
:102730001AF4709561957F4F0895F6F790958195FD
:102740009F4F08952F923F924F925F926F927F9288
:102750008F929F92AF92BF92CF92DF92EF92FF92B1
:102760000F931F93CF93DF93CDB7DEB7CA1BDB0B5D
:102770000FB6F894DEBF0FBECDBF09942A88398802
:1027800048885F846E847D848C849B84AA84B98409
:10279000C884DF80EE80FD800C811B81AA81B98115
:1027A000CE0FD11D0FB6F894DEBF0FBECDBFED0129
:1027B00008950F931F93CF93DF93689F8001699FC4
:1027C000100D789F100D1124C8010E94F513EC0123
:1027D000009729F060E070E0A8010E94FA14CE0191
:1027E000DF91CF911F910F910895CF93DF93BC019B
:1027F0008230910510F462E070E0A091B101B091D7
:10280000B201ED01E0E0F0E040E050E021C088815D
:1028100099818617970769F48A819B81309719F00F
:102820009383828304C09093B2018093B101FE012F
:1028300034C06817790738F44115510519F0841729
:10284000950708F4AC01FE018A819B819C01E90196
:102850002097E9F641155105A9F1CA01861B970B8E
:10286000049708F4BA01E0E0F0E02AC08D919C9151
:10287000119784179507F9F46417750781F4129678
:102880008D919C911397309719F09383828304C0A4
:102890009093B2018093B101FD0132964FC0CA01FD
:1028A000861B970BFD01E80FF91F61937193029747
:1028B0008D939C9343C0FD01828193819C01D9013A
:1028C0001097A1F68091AF019091B001892B41F44E
:1028D00080917801909179019093B0018093AF013C
:1028E00040917A0150917B014115510541F44DB75A
:1028F0005EB78091760190917701481B590B20912A
:10290000AF013091B00124173507B0F4CA01821B22
:10291000930B8617970780F0AB014E5F5F4F8417CC
:10292000950750F0420F531F5093B0014093AF01F1
:10293000F9016193719302C0E0E0F0E0CF01DF9113
:10294000CF910895CF93DF93009709F450C0EC0125
:1029500022971B821A82A091B101B091B201109707
:1029600009F140E050E0AC17BD0708F1BB83AA8332
:10297000FE0121913191E20FF31FAE17BF0779F4E9
:102980008D919C911197280F391F2E5F3F4F3983EE
:10299000288312968D919C9113979B838A8341156E
:1029A000510571F4D093B201C093B10120C01296C9
:1029B0008D919C911397AD01009711F0DC01D3CF5D
:1029C000FA01D383C28321913191E20FF31FCE1715
:1029D000DF0769F488819981280F391F2E5F3F4FE7
:1029E000FA01318320838A819B8193838283DF91E3
:1029F000CF910895DC0101C06D9341505040E0F744
:062A00000895F894FFCFD9
:102A0600526573756C743D006572726F72000000DA
:102A16000000000000000001020203030303040497
:102A26000404040404040505050505050505050556
:102A36000505050505050606060606060606060636
:102A46000606060606060606060606060606060620
:102A56000606060606060707070707070707070706
:102A660007070707070707070707070707070707F0
:102A760007070707070707070707070707070707E0
:102A860007070707070707070707070707070707D0
:102A960007070707070708080808080808080808B6
:102AA60008080808080808080808080808080808A0
:102AB6000808080808080808080808080808080890
:102AC6000808080808080808080808080808080880
:102AD6000808080808080808080808080808080870
:102AE6000808080808080808080808080808080860
:102AF6000808080808080808080808080808080850
:102B0600080808080808080808080808080808083F
:102B16000808080808082000B30100003738392FD4
:0C2B26003435362A3132332D63303D2B1C
:00000001FF
